:0E00000012C0FECFFDCF40C0FBCFFACFF9CF2C
:10000E00F8CFF7CFF6CFF5CFF4CFF3CFF2CFF1CFC6
:10001E00F0CFEFCFEECFEDCFF894EE27ECBBF1E0C3
:10002E00FBBFEBBFE5BF8DE0A2E0BB27ED938A954A
:10003E00E9F780E094E0A0E6ED930197E9F7EFE5AC
:10004E00EDBFE4E0EEBFC0E6D1E033C0C29AE2E31A
:10005E00F0E022D110C0C298EDE2F0E01DD10BC04D
:10006E00C19AEBE3F0E003C0C198E7E3F0E0FA9346
:10007E00EA93A4EFB1E052D008950A921A92FA923E
:10008E006A937A938A939A93AA93BA93EA93FA937A
:10009E00EFB7EA93D1D0E991EFBFF991E991B99118
:1000AE00A9919991899179916991F99019900990F5
:1000BE001895E6E0E7BBE0E0E8BBE4BBE5BBE1BBDF
:1000CE00E2BBE3BFE2BFEFBDEEBDEDBDECBDE7BDF4
:1000DE00E6BDEBBDEABDE9BDE8BDE2BDEAE0E5BDCA
:1000EE00E0E0E4BDECE7E3BDE0E8E9BFE0E0E5BF5A
:1000FE00EAB9E0E8E8B9E0E0E0BFE6B9EDB9E6BF9D
:10010E0041D07894ADE2B0E079D0A7E3B0E076D0FC
:10011E00A89549D0FDCFFFCFB7D00895E5D09D016A
:10012E004E815F810FB7F89410E0123069F0B9D0AC
:10013E00BED0EDD04E175F0729F4B3D0BBD02283CB
:10014E0033831CC01F5FF1CF10E0123071F0A9D0C5
:10015E00B4D049F4A6D0AED040835183A2D0AAD059
:10016E00228333830BC01F5FF0CFA1E0B0E0D3D06A
:10017E00EB3B21F0A1E0B0E0EBEBD9D00FBFBBD051
:10018E00289608951A937CD010E0123021F09ED05C
:10019E00A4D01F5FFACF10E0123021F082D09DD094
:1001AE001F5FFACF6BC0A2D0F894209160013091FE
:1001BE006101E3E9F0E0E217F30719F47894ACDF9C
:1001CE001CC010E0113081F081D074D00F01A12F2E
:1001DE00B0E0AA0FBB1FAE59BE4FED91FD91D001FD
:1001EE00ED93FC931F5FEECFA2E6B1E0E3E9F0E002
:1001FE00ED93FC937894F90109951BC077D09D017E
:10020E0010E00FB7F89462D058D071F01F5F123023
:10021E0051F4A0E0B0E07FD0EA3A21F0A0E0B0E0E7
:10022E00EAEA85D005C0EFCF51D044D02083318388
:10023E000FBF63D0249608951A9310E01230F1F098
:10024E0030D03BD0C9F02DD0AE0FBF1F12965FD06D
:10025E00309751F026D0AE0FBF1F1296ED91FD9143
:10026E003197FE93EE9308C01CD021D0ED91FD91F5
:10027E00DF01C4DF16D031D01F5FE0CF1991089592
:10028E00E5B7E068E5BF0895E5B7EF78E5BFEFB7EE
:10029E0078948895EFBF0895FA93EA93A8EEB3E0A9
:1002AE000895E12FA4E6B1E0F0E02CD00895AE0F52
:1002BE00BF1F0895EA0FFB1F0895F9DFED91FD9121
:1002CE00DF01E3E9F0E0EA17FB070895E12FA0E66E
:1002DE00B1E0F0E0EE0FFF1F0895AE0FBF1FE3E990
:1002EE00F0E0ED93FC9308955A934A933A932A9330
:1002FE001A930A9308955D814C813B812A8119815D
:10030E0008810895EE0FFF1FEE0FFF1F0895ED9168
:10031E00FC9111970895E199FECFFF93FFB7F894E2
:10032E00AEBBBFBBE09AEDB3FFBFFF910895E19B5B
:10033E0002C0A895FCCF9FB7F894AEBBBFBBE09AA6
:10034E008DB3E81719F0EDBBE29AE19A9FBF0895BD
:00000001FF
